:060000000A128A11EB2D2B
:100BD60083010A128A11FE2E8312031307140030B2
:100BE600F3000030F2000030F1006430F0000A1229
:100BF6008A115C260A128A118312031387140030A5
:100C0600F3000030F2004E30F1002030F0000A12FE
:100C16008A115C260A128A11080071087004031DE5
:100C2600152E162E182E312E312E83120313810106
:100C36001D2E1D2EC3300102031C222E232E1D2E17
:100C4600242E0130F0020030031CF103F10271087A
:100C56007004031D2F2E302E182E312E0800F4019D
:100C6600F501352E701C382E392E3F2E7208F407EA
:100C76000318F50A7308F50701300310F20DF30D9A
:100C8600FF3E031D402E01300310F10CF00CFF3E19
:100C9600031D472E71087004031D522E532E352E48
:100CA600542E7508F101F1077408F001F0075B2E68
:100CB60008007308720471047004031D632E642E09
:100CC600662E8B2E8B2E0130F4000030F50000309E
:100CD600F6000030F7007408F0027508031C750F63
:100CE600752E762EF1027608031C760F7B2E7C2E4F
:100CF600F2027708031C770F812E822EF302730807
:100D0600720471047004031D892E8A2E662E8B2EA2
:100D160008008312031387100030F3000030F2003E
:100D26000130F100F430F0000A128A115C260A1232
:100D36008A11831203138715780888007908FA0048
:100D46007A08FB007B18A82EA92EAB2E0712AC2E14
:100D56000716FB18AF2EB02EB22E8712B42E8716AA
:100D6600B42E0030F3000030F2000030F1006430A1
:100D7600F0000A128A115C260A128A1183120313E2
:100D8600071008008312031387100030F3000030A9
:100D9600F2000130F100F430F0000A128A115C26EC
:100DA6000A128A11831203138711780888007908BA
:100DB600FA007A08FB007B18E12EE22EE42E0712D9
:100DC600E52E0716FB18E82EE92EEB2E8712ED2EE0
:100DD6008716ED2E0030F3000030F2000030F100EF
:100DE6006430F0000A128A115C260A128A118312F4
:100DF600031307100800C030831603138500FF3065
:100E060086008430870088010330890006309F0001
:100E160081128111011581140114831203138512A5
:100E260085110511851005107030FC007C08A100A5
:100E36000A128A11EF250A128A1183120313A201DC
:100E4600242F0618272F282F422F2A2F2A2F061C39
:100E56002D2F2E2F2A2F2F2F2108703A031D342FC6
:100E6600352F3B2F7230FC007C08A1008516682FB9
:100E76007030FC007C08A1008512682F682F861848
:100E8600452F462F4A2FA2010314A20D682F0619DB
:100E96004D2F4E2F532F0230FC007C08A200682FE6
:100EA600061A562F572F5C2F0330FC007C08A20031
:100EB600682F861A5F2F602F682F0430FC007C088D
:100EC600A200682F682F682F682F2208031D6C2F39
:100ED600242F2108703A031D712F722F8E2F22089E
:100EE600FF3EF000FF3003180030F1009630F200AC
:100EF6000030F3000A128A1132260A128A1171088A
:100F0600F901F9077008F801F8070A128A118C2608
:100F16000A128A11B32F831203132108723A031D92
:100F2600952F962FB32F2208FF3EF000FF300318AF
:100F36000030F1009630F2000030F3000A128A11F8
:100F460032260A128A117108F901F9077008F801A8
:100F5600F8070A128A11C5260A128A11B32FB32F6F
:100F66001E30FC007C0883120313A000A008031D9A
:100F7600BD2FBE2FCE2FEE2FEE2FCE2F083085069B
:100F8600DC2F04308506DC2F02308506DC2F01308D
:100F96008506DC2FDC2F2208013A0319C12F033AFC
:100FA6000319C42F013A0319C72F073A0319CA2F89
:100FB600DC2F3230F0000030F1000A128A111026C0
:100FC6000A128A11013083120313A002A008031D1E
:100FD600ED2FEE2FCE2FA2010A128A11EF250A124B
:100FE6008A11831203138511051185100510242F0C
:0A0FF600242F242F0A128A1100286C
:02400E00323F3F
:00000001FF
