:10000000203084002A300A200A128A11052F0406A3
:0E0010008001840A0406031D072864000034E2
:100C2000F401F5010310F30CF20C031C1E2E7008E6
:100C3000F40771080318710AF5070310F00DF10DA0
:100C40007208730403190034122E8312031307145D
:100C50006430A600A701A801A9010A128A1167261B
:100C60000A128A1187142030A6004E30A7000030E7
:100C7000A8000030A9000A128A1167260A128A11F8
:100C80000313831208008312031324082304031D93
:100C90004A2E4B2E4C2E642E831203138101502EAC
:100CA000C330831203130102031C572E582E502EFB
:100CB000FF3083120313A307031CA4032408230497
:100CC000031D632E642E4C2E03138312080083121F
:100CD00003132908280427042604031D702E712EEF
:100CE000722E902EFF3083120313A607FF300311DC
:100CF0000318013E031DA707FF3003110318013E2F
:100D0000031DA807FF3003110318013E031DA907A7
:100D10002908280427042604031D8F2E902E722EE6
:100D2000031383120800831203138710F430A60004
:100D30000130A7000030A8000030A9000A128A1173
:100D400067260A128A118711230888002408A50043
:100D50002518AB2EAC2EAE2E0712B12E8312031324
:100D6000071683120313A518B62EB72EB92E8712B5
:100D7000BC2E831203138716643083120313A6005C
:100D8000A701A801A9010A128A1167260A128A116D
:100D90000710031383120800831203138710F43023
:100DA000A6000130A7000030A8000030A9000A12F8
:100DB0008A1167260A128A118715230888002408D9
:100DC000A5002518E42EE52EE72E0712EA2E831241
:100DD0000313071683120313A518EF2EF02EF22E1D
:100DE0008712F52E831203138716643083120313C0
:100DF000A600A701A801A9010A128A1167260A12F2
:100E00008A110710031383120800C03083160313DE
:100E10008500FF3086008430870088010330890018
:100E200006309F0081128111011581140114831273
:100E3000851285110511851005107030A0000A1269
:100E40008A1125260A128A11A1018312031306189A
:100E50002A2F2B2F442F2C2F83120313061C312FE4
:100E6000322F2C2F831203132008703A031D392FC1
:100E70003A2F3E2F7230A0008516432F7030831218
:100E80000313A0008512672F831203138618492FBE
:100E90004A2F4D2FA101A10A672F831203130619B0
:100EA000522F532F562F0230A100672F83120313A6
:100EB000061A5B2F5C2F5F2F0330A100672F831270
:100EC0000313861A642F652F672F0430A100831245
:100ED0000313A10803196D2F6E2FFB2F2008703A02
:100EE000031D732F742F8E2F9630F2000030F30005
:100EF0002108F000F101FF30F007031CF1070A128E
:100F00008A1110260A128A117408A3007508A40019
:100F10000A128A11CC260A128A11AF2F83120313E8
:100F20002008723A031D952F962FAF2F9630F200AE
:100F30000030F3002108F000F101FF30F007031C3E
:100F4000F1070A128A1110260A128A117408A300E6
:100F50007508A4000A128A1193260A128A111E30FB
:100F600083120313A200A208031DB72FB82FB92FB5
:100F7000EF2FCF2F8312031308308506DF2F831244
:100F8000031304308506DF2F831203130230850616
:100F9000DF2F8312031301308506DF2FDF2F83122B
:100FA00003132108013A0319BA2F033A0319BF2F7B
:100FB000013A0319C42F073A0319C92FDF2F323022
:100FC00083120313A300A4010A128A1143260A12F2
:100FD0008A11A203A208031DEE2FEF2FB92F83124F
:100FE0000313A1010A128A1125260A128A118511FA
:100FF000051185100510252F83010A128A1100287A
:02400E00323F3F
:00000001FF
