:060000000A128A11FC2F18
:100CB8007008710403190800831203138101C330FB
:100CC8000102031C632E0130F0020030031CF10303
:100CD800F1025C2E8312031307140030F300003076
:100CE800F2000030F1006430F0000A128A11AE26DA
:100CF8000A128A118312031387140030F30000309C
:100D0800F2004E30F1002030F0000A128A11AE26AF
:100D18000800F401F501701C972E7208F4070318F7
:100D2800F50A7308F50701300310F20DF30DFF3EC5
:100D3800031D982E01300310F10CF00CFF3E031D2B
:100D48009F2E70087104031D8F2E7508F10074081A
:100D5800F000080073087204710470040319080095
:100D68000130F4000030F5000030F6000030F700E4
:100D78007408F0027508031C750FC32EC42EF10207
:100D88007608031C760FC92ECA2EF2027708031CB8
:100D9800770FCF2EAE2EF302AE2E831203138710D9
:100DA8000030F3000030F2000130F100F430F000C0
:100DB8000A128A11AE260A128A11831203138715A2
:100DC800780888007908FA007A08FB007B18EE2E6C
:100DD8000712EF2E0716FB18F32E8712F42E87162C
:100DE8000030F3000030F2000030F1006430F00011
:100DF8000A128A11AE268312031307100800831201
:100E0800031387100030F3000030F2000130F100C6
:100E1800F430F0000A128A11AE260A128A118312DF
:100E280003138711780888007908FA007A08FB000C
:100E38007B18202F0712212F0716FB18252F871242
:100E4800262F87160030F3000030F2000030F10042
:100E58006430F0000A128A11AE26831203130710B9
:100E68000800C030831603138500FF3086008430E5
:100E7800870088010330890006309F0081128111A4
:100E880001158114011483120313851285110511AC
:100E9800851005107030FC007C08A1000A128A1128
:100EA8006E260A128A1183120313A20106186E2FE6
:100EB800061C5C2F70302106031D682F7230FC0061
:100EC8007C08A1008516812F7030FC007C08A100E9
:100ED8008512812F8618732FA201A20A812F061965
:100EE800772F02307E2F061A7B2F03307E2F861A2B
:100EF800812F0430FC007C08A200220803195A2F15
:100F080070302106031DA22F2208FF3EF000FF309B
:100F180003180030F1009630F2000030F3000A1296
:100F28008A118D260A128A117108F9007008F800D2
:100F38000A128A11D1260A128A11C12F723083121D
:100F480003132106031DC12F2208FF3EF000FF30C6
:100F580003180030F1009630F2000030F3000A1256
:100F68008A118D260A128A117108F9007008F80092
:100F78000A128A1103270A128A111E30FC007C0803
:100F880083120313A000DD2F0830CF2F0430CF2F9A
:100F98000230CF2F013085063230F0000030F100EA
:100FA8000A128A115C260A128A110130831203136D
:100FB800A00220080319EF2F2208013A0319C82FAD
:100FC800033A0319CA2F013A0319CC2F073A031918
:100FD800CE2FD02FD02FA2010A128A116E260A1204
:100FE8008A118312031385110511851005105A2FD4
:080FF80083010A128A11352F52
:02400E0032FF7F
:00000001FF
